:020000040000fa
:080000000002040000000000f2
:020000040000fa
:0400080044040000ac
:020000040000fa
:04000c0044040000a8
:020000040000fa
:0400100044040000a4
:020000040000fa
:0400140044040000a0
:020000040000fa
:04001800440400009c
:020000040000fa
:04001c004404000098
:020000040000fa
:040020004404000094
:020000040000fa
:040024004404000090
:020000040000fa
:04002800440400008c
:020000040000fa
:04002c004404000088
:020000040000fa
:040030004404000084
:020000040000fa
:040034004404000080
:020000040000fa
:04003800440400007c
:020000040000fa
:04003c004404000078
:020000040000fa
:040040004404000074
:020000040000fa
:040044004404000070
:020000040000fa
:04004800440400006c
:020000040000fa
:04004c004404000068
:020000040000fa
:040050004404000064
:020000040000fa
:040054004404000060
:020000040000fa
:04005800440400005c
:020000040000fa
:04005c004404000058
:020000040000fa
:040060004404000054
:020000040000fa
:040064004404000050
:020000040000fa
:04006800440400004c
:020000040000fa
:04006c004404000048
:020000040000fa
:040070004404000044
:020000040000fa
:040074004404000040
:020000040000fa
:04007800440400003c
:020000040000fa
:04007c004404000038
:020000040000fa
:040080004404000034
:020000040000fa
:040084004404000030
:020000040000fa
:04008800440400002c
:020000040000fa
:04008c004404000028
:020000040000fa
:040090004404000024
:020000040000fa
:040094004404000020
:020000040000fa
:04009800440400001c
:020000040000fa
:04009c004404000018
:020000040000fa
:0400a000d00200008a
:020000040000fa
:0400a4004404000010
:020000040000fa
:0400a800440400000c
:020000040000fa
:0400ac004404000008
:020000040000fa
:0400b0004404000004
:020000040000fa
:0400b4004404000000
:020000040000fa
:0400b80044040000fc
:020000040000fa
:0400bc0044040000f8
:020000040000fa
:0400c00044040000f4
:020000040000fa
:0400c40044040000f0
:020000040000fa
:0400c80044040000ec
:020000040000fa
:0400cc0044040000e8
:020000040000fa
:0400d00044040000e4
:020000040000fa
:0400d40044040000e0
:020000040000fa
:0400d80044040000dc
:020000040000fa
:0400dc0044040000d8
:020000040000fa
:0400e00044040000d4
:020000040000fa
:0400e40044040000d0
:020000040000fa
:0400e80044040000cc
:020000040000fa
:0400ec0044040000c8
:020000040000fa
:0400f00044040000c4
:020000040000fa
:0400f40044040000c0
:020000040000fa
:0400f80044040000bc
:020000040000fa
:0400fc0044040000b8
:020000040000fa
:0401000044040000b3
:020000040000fa
:0401040044040000af
:020000040000fa
:0401080044040000ab
:020000040000fa
:04010c0044040000a7
:020000040000fa
:0401100044040000a3
:020000040000fa
:04011400440400009f
:020000040000fa
:04011800440400009b
:020000040000fa
:04011c004404000097
:020000040000fa
:040120004404000093
:020000040000fa
:04012400440400008f
:020000040000fa
:04012800440400008b
:020000040000fa
:04012c004404000087
:020000040000fa
:040130004404000083
:020000040000fa
:04013400440400007f
:020000040000fa
:0402080044040000aa
:020000040000fa
:04020c0044040000a6
:020000040000fa
:0402100044040000a2
:020000040000fa
:04021400440400009e
:020000040000fa
:04021800440400009a
:020000040000fa
:04021c004404000096
:020000040000fa
:040220004404000092
:020000040000fa
:04022400440400008e
:020000040000fa
:04022800440400008a
:020000040000fa
:04022c004404000086
:020000040000fa
:040230004404000082
:020000040000fa
:04023400440400007e
:020000040000fa
:04023800440400007a
:020000040000fa
:04023c004404000076
:020000040000fa
:040240004404000072
:020000040000fa
:04024400440400006e
:020000040000fa
:04024800440400006a
:020000040000fa
:04024c004404000066
:020000040000fa
:040250004404000062
:020000040000fa
:04025400440400005e
:020000040000fa
:04025800440400005a
:020000040000fa
:04025c004404000056
:020000040000fa
:040260004404000052
:020000040000fa
:04026400440400004e
:020000040000fa
:04026800440400004a
:020000040000fa
:04026c004404000046
:020000040000fa
:040270004404000042
:020000040000fa
:04027400440400003e
:020000040000fa
:04027800440400003a
:020000040000fa
:04027c004404000036
:020000040000fa
:040280004404000032
:020000040000fa
:04028400440400002e
:020000040000fa
:04028800440400002a
:020000040000fa
:04028c004404000026
:020000040000fa
:040290004404000022
:020000040000fa
:04029400440400001e
:020000040000fa
:04029800440400001a
:020000040000fa
:04029c004404000016
:020000040000fa
:0402a000d002000088
:020000040000fa
:0402a400440400000e
:020000040000fa
:0402a800440400000a
:020000040000fa
:0402ac004404000006
:020000040000fa
:0402b0004404000002
:020000040000fa
:0402b40044040000fe
:020000040000fa
:0402b80044040000fa
:020000040000fa
:0402bc0044040000f6
:020000040000fa
:0402c00044040000f2
:020000040000fa
:0402c40044040000ee
:020000040000fa
:0402c80044040000ea
:020000040000fa
:0402cc0044040000e6
:020000040000fa
:0402d00044040000e2
:020000040000fa
:0402d40044040000de
:020000040000fa
:0402d80044040000da
:020000040000fa
:0402dc0044040000d6
:020000040000fa
:0402e00044040000d2
:020000040000fa
:0402e40044040000ce
:020000040000fa
:0402e80044040000ca
:020000040000fa
:0402ec0044040000c6
:020000040000fa
:0402f00044040000c2
:020000040000fa
:0402f40044040000be
:020000040000fa
:0402f80044040000ba
:020000040000fa
:0402fc0044040000b6
:020000040000fa
:0403000044040000b1
:020000040000fa
:0403040044040000ad
:020000040000fa
:0403080044040000a9
:020000040000fa
:04030c0044040000a5
:020000040000fa
:0403100044040000a1
:020000040000fa
:04031400440400009d
:020000040000fa
:040318004404000099
:020000040000fa
:04031c004404000095
:020000040000fa
:040320004404000091
:020000040000fa
:04032400440400008d
:020000040000fa
:040328004404000089
:020000040000fa
:04032c004404000085
:020000040000fa
:040330004404000081
:020000040000fa
:04033400440400007d
:020000040000fa
:10040000cf8820000e7f22000e018800000000002f
:10041000000020000000e000020032000001200087
:100420002002880014000700190107000000e00006
:1004300003003a00c09120000100200002003700b4
:100440000000200001002000810f70000100320038
:1004500014000700000020000000e000020032004d
:1004600000000200000000000e0902000000000071
:100470000040da000000fe004440a900800820008f
:100480000000e0000300320000002000a00188000e
:100490004440a800000006008a1f78008b1f7800e7
:1004a0000000060091018800800478000000eb0045
:1004b0001a003700e284440032a0b4009905ba0063
:1004c000e284440032a0b4009906ba00e2844400f9
:1004d00032a0b4000006eb00476fde00fd07b2005b
:1004e000636ce10003003a00ebff07000000eb0043
:1004f0000a003700606ce10004003a00005deb0088
:100500008b05e900fdff3e00040037006168e10053
:10051000010032000086eb000b00070019c7ba008b
:100520001905ba000e04e00003003a000a00e000da
:10053000e0ff3a0000000600fe07b2009e018800be
:100540008a047800f5ff3700395dba008b05e900b1
:100550000c003200295dba008b05e900080032006a
:100560000c00e00003003a00e284440032a0b40032
:10057000f5ff370019ddba008b05e900faff3a00f4
:100580008904e800e184440032a0b40000000600c1
:100590007e08040000000000c20804000000000003
:1005a0003600f800809fbe00829fbe00849fbe0080
:1005b000869fbe003400f80000002000a0018800e3
:1005c0000600fa0087c0a900b0118000004f780033
:1005d00000408000c18020001e41780082707800b9
:1005e00000408000c1802000614078000000fb00d6
:1005f00093020700004080000000e80000408800ef
:100600000140800000082000808f5000010034006d
:100610000028ef001e407800ed4f500090003a0097
:10062000e1772800c0802000240207000000e000dd
:1006300003003a0050782800940207007a0037003f
:1006400071792800c08020001c0207000000e00033
:1006500037003a00e087200000000100407a2800bf
:100660008a02070020408000314080000200200004
:10067000031224009e0107002601070010079800be
:100680001e019000b04721000090b900c388de0031
:100690004f90de00008050000003b00068020700a9
:1006a0009e009000b04721000089b9004399de0008
:1006b0004f88de0000005100420620000281b90090
:1006c0000200780000805000716626000181b900a8
:1006d000c298de004f80de00008050000003b000b2
:1006e00057020700e0022000550207009e0090001c
:1006f0004006200000017800110009008200d800a7
:100700008000fd0080007800a0002000000178003b
:10071000110009008200d8008000fd000003b00035
:1007200047020700107b2800580207003e003700f0
:10073000717b2800c0802000e00107000000e0007d
:1007400037003a00607c280050020700208c20000f
:100750000000010040408000514080000200200065
:10076000832c240062010700ea000700200798009c
:100770002e019000b04721000090b900c388de0030
:100780004f90de00008050000003b0002c020700f4
:10079000e00220002a020700ae009000b0472100ce
:1007a0000089b9004399de004f88de000000510047
:1007b000420620000281b90002007800008050004b
:1007c000716626000181b900c298de004f80de000c
:1007d000008050000003b00019020700ae00900036
:1007e0004006200000017800110009008200d800b6
:1007f0008000fd0080007800a0002000000178004b
:10080000110009008200d8008000fd000003b00044
:100810000b020700107b28001c02070002003700b3
:10082000c07d2800190207000028ef0007003700ec
:1008300000408000c18020000041eb008270780001
:10084000004080000000e800004088000140800077
:10085000f0072000808f5000f5ff34000028ef00e3
:1008600000408000101688000080fa003400f90073
:100870004f03be004f02be004f01be004f00be003e
:100880003600f900004006000040da000000fe00db
:100890000000050003f0a200889fbe008a9fbe00f2
:1008a0008c1f7800fa000700010133006450e1005a
:1008b0004f0032006420e1005200320003826c00dd
:1008c00007003b000905d0000306d000820f54004a
:1008d0000c065d0002003900020032008901780038
:1008e000030678008582550004003d000003fd00ea
:1008f0008103fd008502ea008b854200840f7200af
:1009000002003b0060001000e08018006011b80099
:100910000005eb007a28e1000a00390006007800a3
:10092000c75ddd00f707b200878075002d00370036
:10093000828171000a017800610560008180d10028
:100940000080d3008502e900f9ff3b000604400067
:100950008784480002003b0060041400e0841c000f
:100960000988a300070032008a817100828171002a
:10097000610164008904d1000884d3008b05e8007c
:10098000170037000978a30013003a000b00e000bd
:10099000130034008b05e9000804440089844c00ee
:1009a0000a4474000978a3000d003a000b00e0002f
:1009b000070034008b05e9000804440089844c00da
:1009c00001003a000b0020000978a300f7ff320075
:1009d0000001eb0002003700828171000a017800fb
:1009e000700007000cf0a70001f0a000b90037006c
:1009f0006420e10002003a00838f6c00b9003300ec
:100a00000801be000200be00b2003700889fbe0091
:100a10008a9fbe008c1f78009d000700a400330051
:100a200003866c006450e1002e0032006420e10077
:100a3000330032006150e1002f0032006120e100fc
:100a40003100320085855500eb07b0000900200019
:100a500008042000050037000804440089844c0085
:100a60000a0031000603430087834b000001530056
:100a700081815b00f8ff33000203be000800a00084
:100a80000804440089844c00f6ff3900c639dd00b3
:100a90008301730001003200130020008904d1009b
:100aa0000884d3000998a300050032000800a700bd
:100ab0000300a0008904d1000884d3008b05e8005e
:100ac0008904d1000884d3000001eb000281d20028
:100ad0003400070001f0a1000cf0a70001f0a00015
:100ae0007c0037006420e1007e0032000801be0077
:100af0000200be00f7ff37006120e10079003200fc
:100b00006000b800f3ff37000000200001f8270064
:100b1000f0ff37000001be00480007000470a70086
:100b200003f0a1006509b100160032000d00350088
:100b30006828e10006003500f0ff2f00f1ff2700d4
:100b40000300e00013003b00010028000000050046
:100b500000004000818048008502e900fcff3a0067
:100b600008003700f88f420002003c008000eb00d4
:100b7000000005008100d1000080d3008502e8005c
:100b8000fcff3a000300e00002003b0060001000a0
:100b9000e0801800000006004f89de008201780026
:100ba0008700370081002000618055000b003d0068
:100bb0000b00200061fe2f000100e1001d00340049
:100bc00082817100610164008904d1000884d3002e
:100bd0000000e800faff3a007100200061006400a4
:100be000030070000200600009003200610444004c
:100bf000e0844c000988a500050032008b05e80060
:100c00006808e10002003a008904d1000884d3009a
:100c1000f20f20000258e10005003d00c75ddd0035
:100c2000f907b2008980750008007800000006000e
:100c30000bf827008b00780000000500c70ade00d3
:100c4000f107b200f50fb20008003200e1cf420018
:100c5000020032000170a00024000500810f700026
:100c6000010032000408050044000500810f7000f7
:100c700002003a00140005008502e900000040006f
:100c800081c04800fcff3b000170a000240005006b
:100c90000004be00e9ff07000003be000405be001b
:100ca0000200be00e5ff0700844f7500000006004b
:100cb0000200be006450e100050036006420e1003f
:100cc000020036000968a30001003a000800be00d7
:100cd0000160a0004f0678004f05be004f04be0023
:100ce00000000600f0ff2f00f1ff2700f9ff37009a
:100cf000889fbe008a9fbe008c1f7800e4ff07001b
:100d0000ebff330003866c006450e10024003200e6
:100d10006420e100270032006150e100220032002f
:100d20006120e100210032008b854200eb07b10019
:100d30000134b800003ab8000804420089844a002f
:100d4000013ab8000030b8008880400009014a002c
:100d50000400330000004000818048000201490087
:100d60008b05e900c909dd00830170000100320034
:100d700013002000c814de004814dd004709de001f
:100d80001200b200c808de000884700085ff07006a
:100d900001f0a1000cf0a70001f0a000cdff37008a
:100da0006120e100cfff32000801be000200be005a
:100db000f7ff37006150e100fcff3a00c9ff370040
:100dc000881f7800030478000300e00007003d005e
:100dd00060001000e080180060011900e081190037
:100de00002003b0001f02d00030037000400070063
:100df00008f0a70001f0a0004f04780000000600f2
:100e0000889fbe008a9fbe000082700004027100ad
:100e100004827100260032000004be000200be0001
:100e20006011b8006b092000950220000182cf00fc
:100e30000a0039000541b1000082cf0007003900e7
:100e40000541b1000982cf00040039000541b1001d
:100e50000882cf00010039000541b100054252006f
:100e6000120032000a003b008281710061016400bf
:100e70008100d1000080d3008984d3000884d3008e
:100e80008b05e8000442e800f7ff3a00070037004e
:100e90000804440089844c00000048008180480018
:100ea0008b05e9000442e900f9ff3a003dff070025
:100eb0004f05be004f04be000000060002003700d0
:100ec0000204e0000b00320081017800000278008b
:100ed00030417800b14f5100f9ff3200100020007e
:100ee00014427800934f5200030031000080eb0061
:0c0ef000000006000000eb0000000600ff
:020000040000fa
:100efc00686500006c6c00006f0d0000004d000078
:100f0c00792000006e6100006d6500002069000012
:100f1c00732000004b6800006f6100000a0d000098
:100f2c0000740000656d00007065000072610000c7
:100f3c0074750000726500000d0000004e68000022
:100f4c006965000074200000646f00003a20000006
:100f5c000d0a0000006400006f4300000d0a000041
:100f6c00007000006f740000656e00007469000072
:100f7c006f6d000065740000657200000d000000cc
:100f8c00566f00007574000020630000756100004e
:100f9c0020620000696500006e2000007472000081
:100fac006f3a0000200d00000a00000049200000ec
:100fbc00646f00006e270000742000006b6e000050
:100fcc006f7700000a0d0000005400004855000027
:100fdc0043200000484100004e480000205600000d
:100fec00492000004449000045550000204b0000fa
:100ffc0048490000454e0000210a00000d00000089
:020000040000fa
:10100c000000fa0040042000c01188008000280075
:10101c00801188003062a8000040200090118800e8
:10102c00dfa2a900df82a800e1a2a8000080fa00dc
:10103c00000006000200fa00000f7800000000001b
:10104c000117800000002100008060000000e0001b
:10105c00fbff3a00000000009111800000202000ee
:10106c00008060000000e000fbff3a001e007800ea
:10107c00a01188001e0078000080fa000000060015
:10108c000200fa00000f7800050037001e007800ff
:10109c00104078000000fb001e0fe800e5ff070081
:1010ac001e007800104078000004e000f7ff3a00c2
:1010bc000080fa00000006000000fa009111800088
:1010cc00f0f32f00008060009011880091058000e3
:1010dc00f08f2f000080600000a0a0009005880019
:1010ec0087c0a90097c0a8000080fa000000060085
:1010fc000200fa002c83a900000e200000198800c1
:10110c003023ef002223ef0020f02100201988006b
:10111c0021e3a8004000200030000700000f7800f9
:10112c001e007800cf80de0098fe07000200200031
:10113c00030a2400ebfe070002002000a347240052
:10114c00e8fe070002002000034824002cfe0700e4
:10115c0002002000a33f2400cbfd0700020020006a
:10116c000312240026fe070020408800314088002e
:10117c000080fa00000006000200fa002ca3a9006f
:10118c00000e2000001988003023ef002223ef000e
:10119c0020f021002019880021e3a8005000200035
:1011ac000e000700000f78001e007800cf80de00d4
:1011bc0076fe070002002000030a2400c9fe070087
:1011cc0002002000034824000dfe07004040880068
:1011dc00514088000080fa00000006000200fa006e
:1011ec00000f78001e007800401988002023a8000a
:1011fc000000000000198000610060000000e000a9
:10120c00fcff3200001880000080fa00000006008d
:10121c008000fa00c022ef0079ff0700b07e2800a2
:0c122c0097ff0700a4ff0700ffff37003a
:020000040000fa
:101238000c0800008000000000000000000800000a
:0c1248000c00000000000000000000008e
:020000040000fa
:020000040002f8
:04aff800befa00009d
:020000040000fa
:020000040002f8
:04affc00ff3f000013
:00000001FF
