:020000040000fa
:080000000002040000000000f2
:020000040000fa
:040008009a03000057
:020000040000fa
:04000c009a03000053
:020000040000fa
:040010009a0300004f
:020000040000fa
:040014009a0300004b
:020000040000fa
:040018009a03000047
:020000040000fa
:04001c009a03000043
:020000040000fa
:040020009a0300003f
:020000040000fa
:040024009a0300003b
:020000040000fa
:04002800ea020000e8
:020000040000fa
:04002c009a03000033
:020000040000fa
:040030009a0300002f
:020000040000fa
:04003400cc020000fa
:020000040000fa
:040038009a03000027
:020000040000fa
:04003c009a03000023
:020000040000fa
:040040009a0300001f
:020000040000fa
:040044009a0300001b
:020000040000fa
:040048009a03000017
:020000040000fa
:04004c009a03000013
:020000040000fa
:040050009a0300000f
:020000040000fa
:040054009a0300000b
:020000040000fa
:040058009a03000007
:020000040000fa
:04005c003803000065
:020000040000fa
:040060009a030000ff
:020000040000fa
:040064009a030000fb
:020000040000fa
:040068009a030000f7
:020000040000fa
:04006c009a030000f3
:020000040000fa
:040070009a030000ef
:020000040000fa
:040074009a030000eb
:020000040000fa
:040078009a030000e7
:020000040000fa
:04007c009a030000e3
:020000040000fa
:040080009a030000df
:020000040000fa
:040084009a030000db
:020000040000fa
:040088009a030000d7
:020000040000fa
:04008c009a030000d3
:020000040000fa
:040090009a030000cf
:020000040000fa
:040094009a030000cb
:020000040000fa
:040098009a030000c7
:020000040000fa
:04009c009a030000c3
:020000040000fa
:0400a0009a030000bf
:020000040000fa
:0400a4009a030000bb
:020000040000fa
:0400a8009a030000b7
:020000040000fa
:0400ac009a030000b3
:020000040000fa
:0400b0009a030000af
:020000040000fa
:0400b4009a030000ab
:020000040000fa
:0400b8009a030000a7
:020000040000fa
:0400bc009a030000a3
:020000040000fa
:0400c0009a0300009f
:020000040000fa
:0400c4009a0300009b
:020000040000fa
:0400c8009a03000097
:020000040000fa
:0400cc009a03000093
:020000040000fa
:0400d0009a0300008f
:020000040000fa
:0400d4009a0300008b
:020000040000fa
:0400d8009a03000087
:020000040000fa
:0400dc009a03000083
:020000040000fa
:0400e0009a0300007f
:020000040000fa
:0400e4009a0300007b
:020000040000fa
:0400e8009a03000077
:020000040000fa
:0400ec009a03000073
:020000040000fa
:0400f0009a0300006f
:020000040000fa
:0400f4009a0300006b
:020000040000fa
:0400f8009a03000067
:020000040000fa
:0400fc009a03000063
:020000040000fa
:040100009a0300005e
:020000040000fa
:040104009a0300005a
:020000040000fa
:040108009a03000056
:020000040000fa
:04010c009a03000052
:020000040000fa
:040110009a0300004e
:020000040000fa
:040114009a0300004a
:020000040000fa
:040118009a03000046
:020000040000fa
:04011c009a03000042
:020000040000fa
:040120009a0300003e
:020000040000fa
:040124009a0300003a
:020000040000fa
:040128009a03000036
:020000040000fa
:04012c009a03000032
:020000040000fa
:040130009a0300002e
:020000040000fa
:040134009a0300002a
:020000040000fa
:040208009a03000055
:020000040000fa
:04020c009a03000051
:020000040000fa
:040210009a0300004d
:020000040000fa
:040214009a03000049
:020000040000fa
:040218009a03000045
:020000040000fa
:04021c009a03000041
:020000040000fa
:040220009a0300003d
:020000040000fa
:040224009a03000039
:020000040000fa
:04022800ea020000e6
:020000040000fa
:04022c009a03000031
:020000040000fa
:040230009a0300002d
:020000040000fa
:04023400cc020000f8
:020000040000fa
:040238009a03000025
:020000040000fa
:04023c009a03000021
:020000040000fa
:040240009a0300001d
:020000040000fa
:040244009a03000019
:020000040000fa
:040248009a03000015
:020000040000fa
:04024c009a03000011
:020000040000fa
:040250009a0300000d
:020000040000fa
:040254009a03000009
:020000040000fa
:040258009a03000005
:020000040000fa
:04025c003803000063
:020000040000fa
:040260009a030000fd
:020000040000fa
:040264009a030000f9
:020000040000fa
:040268009a030000f5
:020000040000fa
:04026c009a030000f1
:020000040000fa
:040270009a030000ed
:020000040000fa
:040274009a030000e9
:020000040000fa
:040278009a030000e5
:020000040000fa
:04027c009a030000e1
:020000040000fa
:040280009a030000dd
:020000040000fa
:040284009a030000d9
:020000040000fa
:040288009a030000d5
:020000040000fa
:04028c009a030000d1
:020000040000fa
:040290009a030000cd
:020000040000fa
:040294009a030000c9
:020000040000fa
:040298009a030000c5
:020000040000fa
:04029c009a030000c1
:020000040000fa
:0402a0009a030000bd
:020000040000fa
:0402a4009a030000b9
:020000040000fa
:0402a8009a030000b5
:020000040000fa
:0402ac009a030000b1
:020000040000fa
:0402b0009a030000ad
:020000040000fa
:0402b4009a030000a9
:020000040000fa
:0402b8009a030000a5
:020000040000fa
:0402bc009a030000a1
:020000040000fa
:0402c0009a0300009d
:020000040000fa
:0402c4009a03000099
:020000040000fa
:0402c8009a03000095
:020000040000fa
:0402cc009a03000091
:020000040000fa
:0402d0009a0300008d
:020000040000fa
:0402d4009a03000089
:020000040000fa
:0402d8009a03000085
:020000040000fa
:0402dc009a03000081
:020000040000fa
:0402e0009a0300007d
:020000040000fa
:0402e4009a03000079
:020000040000fa
:0402e8009a03000075
:020000040000fa
:0402ec009a03000071
:020000040000fa
:0402f0009a0300006d
:020000040000fa
:0402f4009a03000069
:020000040000fa
:0402f8009a03000065
:020000040000fa
:0402fc009a03000061
:020000040000fa
:040300009a0300005c
:020000040000fa
:040304009a03000058
:020000040000fa
:040308009a03000054
:020000040000fa
:04030c009a03000050
:020000040000fa
:040310009a0300004c
:020000040000fa
:040314009a03000048
:020000040000fa
:040318009a03000044
:020000040000fa
:04031c009a03000040
:020000040000fa
:040320009a0300003c
:020000040000fa
:040324009a03000038
:020000040000fa
:040328009a03000034
:020000040000fa
:04032c009a03000030
:020000040000fa
:040330009a0300002c
:020000040000fa
:040334009a03000028
:020000040000fa
:100400006f8020000e7f22000e0188000000000097
:10041000000020000000e000020032000001200087
:100420002002880014000700c40007000000e0005c
:1004300003003a00e06520000100200002003700c0
:100440000000200001002000810f70000100320038
:1004500014000700000020000000e000020032004d
:10046000000002000000000056060200000000002c
:100470000040da000000fe004440a9000000200017
:100480000000e0000300320000002000a00188000e
:100490004440a800000006008a1f78008b1f7800e7
:1004a0000000060091018800800478000000eb0045
:1004b0001a003700e284440032a0b4009905ba0063
:1004c000e284440032a0b4009906ba00e2844400f9
:1004d00032a0b4000006eb00476fde00fd07b2005b
:1004e000636ce10003003a00ebff07000000eb0043
:1004f0000a003700606ce10004003a00005deb0088
:100500008b05e900fdff3e00040037006168e10053
:10051000010032000086eb000b00070019c7ba008b
:100520001905ba000e04e00003003a000a00e000da
:10053000e0ff3a0000000600fe07b2009e018800be
:100540008a047800f5ff3700395dba008b05e900b1
:100550000c003200295dba008b05e900080032006a
:100560000c00e00003003a00e284440032a0b40032
:10057000f5ff370019ddba008b05e900faff3a00f4
:100580008904e800e184440032a0b40000000600c1
:100590003006040000000000801f78003400f800de
:1005a00000002000a00188000000fa008460a9007b
:1005b000004080000000e80000408800004080000b
:1005c000101688000080fa003400f9004f0078000f
:1005d000004006003600f800809fbe00829fbe00eb
:1005e000849fbe00869fbe003400f80000002000fb
:1005f000a00188000000fa008400a90010408000db
:100600000000e8001040880010408000e30f500018
:1006100001003a000228ef0010408000e10f500076
:1006200002003a0095a0a9006b010700104080006d
:10063000e20f500003003a009460a900006320001c
:100640000000010060002000401988002023a8005d
:100650000080fa003400f9004f03be004f02be00d4
:100660004f01be004f00be003600f90000400600fa
:100670003600f800809fbe00829fbe00849fbe00af
:10068000869fbe003400f80000002000a001880012
:100690000800fa0085a0a90000188000204088000a
:1006a0006000b800008fbe006000b800200798000e
:1006b0003107980020408000cf80de007d000700d9
:1006c00002002000030a2400d000070002002000de
:1006d000034824001a000700008fbe00020020001b
:1006e000031224001e00be001500070002002000b7
:1006f000a3472400c5000700200798003107980091
:100700002e009000be0090004f000700000078000f
:10071000101688000080fa003400f9004f03be0074
:100720004f02be004f01be004f00be003600f90070
:10073000004006000040da000000fe000000050056
:10074000889fbe008a9fbe008c1f7800970007001c
:100750009e00330003866c006450e1002e003200de
:100760006420e100330032006150e1002f003200cc
:100770006120e1003100320085855500eb07b000b3
:100780000900200008042000050037000804440088
:1007900089844c000a0031000603430087834b0024
:1007a0000001530081815b00f8ff33000203be00ab
:1007b0000800a0000804440089844c00f6ff3900ba
:1007c000c639dd00830173000100320013002000f0
:1007d0008904d1000884d3000998a30005003200e1
:1007e0000800a7000300a0008904d1000884d300fa
:1007f0008b05e8008904d1000884d3000001eb00d8
:100800000281d2002e00070001f0a1000cf0a70029
:1008100001f0a000760037006420e100780032008b
:100820000801be000200be00f7ff37006120e100b2
:10083000730032006000b800f3ff370000002000b2
:1008400001f82700f0ff37000001be00420007005a
:100850000470a70003f0a10003f8a30013003a00fe
:100860006509b10010003200090035006928e10077
:1008700002003500010028000000050000004000d3
:10088000818048008502e900fcff3a000000060074
:10089000f88f4200050035008100d1000080d300b0
:1008a0008502e800fcff3a00000006008000eb0033
:1008b000000005004f89de008201780087003700c4
:1008c00081002000618055000b003d000b002000de
:1008d00061fe2f000100e1001d00340082817100e3
:1008e000610164008904d1000884d3000000e8009d
:1008f000faff3a00710020006100640003007000fc
:10090000020060000900320061044400e0844c00f1
:100910000988a500050032008b05e8006808e100a1
:1009200002003a008904d1000884d300f20f2000ad
:100930000258e10005003d00c75ddd00f907b20087
:100940008980750008007800000006000bf8270079
:100950008b00780000000500c70ade00f107b20036
:10096000f50fb20008003200e1cf42000200320071
:100970000170a00024000500810f7000010032000a
:100980000408050044000500810f700002003a00d1
:10099000140005008502e9000000400081c0480005
:1009a000fcff3b000170a000240005000004be0015
:1009b000e9ff07000003be000405be000200be0000
:1009c000e5ff0700844f7500000006000200be002e
:1009d0006450e100050036006420e10002003600aa
:1009e0000968a30001003a000800be000160a000f1
:1009f0004f0678004f05be004f04be000000060001
:100a0000f0ff2f00f1ff2700f9ff3700889fbe009d
:100a10008a9fbe008c1f7800e4ff0700ebff3300c5
:100a200003866c006450e100240032006420e10081
:100a3000270032006150e100220032006120e10015
:100a4000210032008b854200eb07b1000134b80071
:100a5000003ab8000804420089844a00013ab8000c
:100a60000030b8008880400009014a0004003300cb
:100a70000000400081804800020149008b05e90028
:100a8000c909dd008301700001003200130020005d
:100a9000c814de004814dd004709de001200b20071
:100aa000c808de000884700085ff070001f0a1007f
:100ab0000cf0a70001f0a000cdff37006120e1009d
:100ac000cfff32000801be000200be00f7ff370072
:100ad0006150e100fcff3a00c9ff3700881f780031
:100ae000030478000300e00007003d0060001000f0
:100af000e080180060011900e081190002003b004d
:100b000001f02d00030037000400070008f0a700e3
:100b100001f0a0004f04780000000600889fbe008e
:100b20008a9fbe000082700004027100048271007e
:100b3000260032000004be000200be006011b800b2
:100b40006b092000950220000182cf000a003900c5
:100b50000541b1000082cf00070039000541b10016
:100b60000982cf00040039000541b1000882cf009e
:100b7000010039000541b100054252001200320067
:100b80000a003b0082817100610164008100d10094
:100b90000080d3008984d3000884d3008b05e8004b
:100ba0000442e800f7ff3a00070037000804440059
:100bb00089844c0000004800818048008b05e900d2
:100bc0000442e900f9ff3a003dff07004f05be006f
:080bd0004f04be000000060006
:020000040000fa
:100bd8000000fa000421ef000021ef0040422f003e
:100be8001008880021058000f0ff28008080600040
:100bf8000000260001007000200588008460a9001c
:100c08009460a8000421a9000441a90021088000db
:100c1800f0fc2f00008060000050a0002008880031
:100c280005e1a8000080fa00000006000000fa00b4
:100c38008200a8002105800080ff2f00008060004e
:100c48005000b300200588008400a9009400a80083
:100c58000080fa00000006000000fa002cc3a9007a
:100c6800000e2000001988003023ef002223ef0037
:100c780020f021002019880021e3a80051058000f8
:100c8800f0f82f008080600000062000010070004e
:100c98005005880085a0a90095a0a8000080fa004a
:100ca800000006000000fa00c022ef00dfff070086
:040cb800ffff370003
:020000040000fa
:100cbc00000800000600000000000000000000001a
:020000040000fa
:020000040002f8
:04aff800befa00009d
:020000040000fa
:020000040002f8
:04affc00ff3f000013
:00000001FF
